{
  "_format": "hh-sol-artifact-1",
  "contractName": "GDNFTStorage",
  "sourceName": "contracts/GDNFTStorage.sol",
  "abi": [
    {
      "inputs": [
        {
          "internalType": "string",
          "name": "name_",
          "type": "string"
        },
        {
          "internalType": "string",
          "name": "symbol_",
          "type": "string"
        }
      ],
      "stateMutability": "nonpayable",
      "type": "constructor"
    },
    {
      "inputs": [
        {
          "internalType": "address",
          "name": "sender",
          "type": "address"
        },
        {
          "internalType": "uint256",
          "name": "tokenId",
          "type": "uint256"
        },
        {
          "internalType": "address",
          "name": "owner",
          "type": "address"
        }
      ],
      "name": "ERC721IncorrectOwner",
      "type": "error"
    },
    {
      "inputs": [
        {
          "internalType": "address",
          "name": "operator",
          "type": "address"
        },
        {
          "internalType": "uint256",
          "name": "tokenId",
          "type": "uint256"
        }
      ],
      "name": "ERC721InsufficientApproval",
      "type": "error"
    },
    {
      "inputs": [
        {
          "internalType": "address",
          "name": "approver",
          "type": "address"
        }
      ],
      "name": "ERC721InvalidApprover",
      "type": "error"
    },
    {
      "inputs": [
        {
          "internalType": "address",
          "name": "operator",
          "type": "address"
        }
      ],
      "name": "ERC721InvalidOperator",
      "type": "error"
    },
    {
      "inputs": [
        {
          "internalType": "address",
          "name": "owner",
          "type": "address"
        }
      ],
      "name": "ERC721InvalidOwner",
      "type": "error"
    },
    {
      "inputs": [
        {
          "internalType": "address",
          "name": "receiver",
          "type": "address"
        }
      ],
      "name": "ERC721InvalidReceiver",
      "type": "error"
    },
    {
      "inputs": [
        {
          "internalType": "address",
          "name": "sender",
          "type": "address"
        }
      ],
      "name": "ERC721InvalidSender",
      "type": "error"
    },
    {
      "inputs": [
        {
          "internalType": "uint256",
          "name": "tokenId",
          "type": "uint256"
        }
      ],
      "name": "ERC721NonexistentToken",
      "type": "error"
    },
    {
      "inputs": [
        {
          "internalType": "address",
          "name": "owner",
          "type": "address"
        }
      ],
      "name": "OwnableInvalidOwner",
      "type": "error"
    },
    {
      "inputs": [
        {
          "internalType": "address",
          "name": "account",
          "type": "address"
        }
      ],
      "name": "OwnableUnauthorizedAccount",
      "type": "error"
    },
    {
      "anonymous": false,
      "inputs": [
        {
          "indexed": true,
          "internalType": "address",
          "name": "owner",
          "type": "address"
        },
        {
          "indexed": true,
          "internalType": "address",
          "name": "approved",
          "type": "address"
        },
        {
          "indexed": true,
          "internalType": "uint256",
          "name": "tokenId",
          "type": "uint256"
        }
      ],
      "name": "Approval",
      "type": "event"
    },
    {
      "anonymous": false,
      "inputs": [
        {
          "indexed": true,
          "internalType": "address",
          "name": "owner",
          "type": "address"
        },
        {
          "indexed": true,
          "internalType": "address",
          "name": "operator",
          "type": "address"
        },
        {
          "indexed": false,
          "internalType": "bool",
          "name": "approved",
          "type": "bool"
        }
      ],
      "name": "ApprovalForAll",
      "type": "event"
    },
    {
      "anonymous": false,
      "inputs": [
        {
          "indexed": false,
          "internalType": "uint256",
          "name": "_fromTokenId",
          "type": "uint256"
        },
        {
          "indexed": false,
          "internalType": "uint256",
          "name": "_toTokenId",
          "type": "uint256"
        }
      ],
      "name": "BatchMetadataUpdate",
      "type": "event"
    },
    {
      "anonymous": false,
      "inputs": [
        {
          "indexed": false,
          "internalType": "uint256",
          "name": "_tokenId",
          "type": "uint256"
        }
      ],
      "name": "MetadataUpdate",
      "type": "event"
    },
    {
      "anonymous": false,
      "inputs": [
        {
          "indexed": true,
          "internalType": "address",
          "name": "previousOwner",
          "type": "address"
        },
        {
          "indexed": true,
          "internalType": "address",
          "name": "newOwner",
          "type": "address"
        }
      ],
      "name": "OwnershipTransferred",
      "type": "event"
    },
    {
      "anonymous": false,
      "inputs": [
        {
          "indexed": true,
          "internalType": "address",
          "name": "from",
          "type": "address"
        },
        {
          "indexed": true,
          "internalType": "address",
          "name": "to",
          "type": "address"
        },
        {
          "indexed": true,
          "internalType": "uint256",
          "name": "tokenId",
          "type": "uint256"
        }
      ],
      "name": "Transfer",
      "type": "event"
    },
    {
      "inputs": [
        {
          "internalType": "address",
          "name": "to",
          "type": "address"
        },
        {
          "internalType": "uint256",
          "name": "tokenId",
          "type": "uint256"
        }
      ],
      "name": "approve",
      "outputs": [],
      "stateMutability": "nonpayable",
      "type": "function"
    },
    {
      "inputs": [
        {
          "internalType": "address",
          "name": "owner",
          "type": "address"
        }
      ],
      "name": "balanceOf",
      "outputs": [
        {
          "internalType": "uint256",
          "name": "",
          "type": "uint256"
        }
      ],
      "stateMutability": "view",
      "type": "function"
    },
    {
      "inputs": [
        {
          "internalType": "address[]",
          "name": "recipients",
          "type": "address[]"
        },
        {
          "internalType": "string[]",
          "name": "tokenURIs",
          "type": "string[]"
        }
      ],
      "name": "batchMint",
      "outputs": [],
      "stateMutability": "nonpayable",
      "type": "function"
    },
    {
      "inputs": [
        {
          "internalType": "uint256",
          "name": "tokenId",
          "type": "uint256"
        }
      ],
      "name": "getApproved",
      "outputs": [
        {
          "internalType": "address",
          "name": "",
          "type": "address"
        }
      ],
      "stateMutability": "view",
      "type": "function"
    },
    {
      "inputs": [
        {
          "internalType": "address",
          "name": "owner",
          "type": "address"
        },
        {
          "internalType": "address",
          "name": "operator",
          "type": "address"
        }
      ],
      "name": "isApprovedForAll",
      "outputs": [
        {
          "internalType": "bool",
          "name": "",
          "type": "bool"
        }
      ],
      "stateMutability": "view",
      "type": "function"
    },
    {
      "inputs": [
        {
          "internalType": "address",
          "name": "to",
          "type": "address"
        },
        {
          "internalType": "string",
          "name": "tokenURI",
          "type": "string"
        }
      ],
      "name": "mint",
      "outputs": [
        {
          "internalType": "uint256",
          "name": "",
          "type": "uint256"
        }
      ],
      "stateMutability": "nonpayable",
      "type": "function"
    },
    {
      "inputs": [],
      "name": "name",
      "outputs": [
        {
          "internalType": "string",
          "name": "",
          "type": "string"
        }
      ],
      "stateMutability": "view",
      "type": "function"
    },
    {
      "inputs": [],
      "name": "owner",
      "outputs": [
        {
          "internalType": "address",
          "name": "",
          "type": "address"
        }
      ],
      "stateMutability": "view",
      "type": "function"
    },
    {
      "inputs": [
        {
          "internalType": "uint256",
          "name": "tokenId",
          "type": "uint256"
        }
      ],
      "name": "ownerOf",
      "outputs": [
        {
          "internalType": "address",
          "name": "",
          "type": "address"
        }
      ],
      "stateMutability": "view",
      "type": "function"
    },
    {
      "inputs": [],
      "name": "renounceOwnership",
      "outputs": [],
      "stateMutability": "nonpayable",
      "type": "function"
    },
    {
      "inputs": [
        {
          "internalType": "address",
          "name": "from",
          "type": "address"
        },
        {
          "internalType": "address",
          "name": "to",
          "type": "address"
        },
        {
          "internalType": "uint256",
          "name": "tokenId",
          "type": "uint256"
        }
      ],
      "name": "safeTransferFrom",
      "outputs": [],
      "stateMutability": "nonpayable",
      "type": "function"
    },
    {
      "inputs": [
        {
          "internalType": "address",
          "name": "from",
          "type": "address"
        },
        {
          "internalType": "address",
          "name": "to",
          "type": "address"
        },
        {
          "internalType": "uint256",
          "name": "tokenId",
          "type": "uint256"
        },
        {
          "internalType": "bytes",
          "name": "data",
          "type": "bytes"
        }
      ],
      "name": "safeTransferFrom",
      "outputs": [],
      "stateMutability": "nonpayable",
      "type": "function"
    },
    {
      "inputs": [
        {
          "internalType": "address",
          "name": "operator",
          "type": "address"
        },
        {
          "internalType": "bool",
          "name": "approved",
          "type": "bool"
        }
      ],
      "name": "setApprovalForAll",
      "outputs": [],
      "stateMutability": "nonpayable",
      "type": "function"
    },
    {
      "inputs": [
        {
          "internalType": "bytes4",
          "name": "interfaceId",
          "type": "bytes4"
        }
      ],
      "name": "supportsInterface",
      "outputs": [
        {
          "internalType": "bool",
          "name": "",
          "type": "bool"
        }
      ],
      "stateMutability": "view",
      "type": "function"
    },
    {
      "inputs": [],
      "name": "symbol",
      "outputs": [
        {
          "internalType": "string",
          "name": "",
          "type": "string"
        }
      ],
      "stateMutability": "view",
      "type": "function"
    },
    {
      "inputs": [
        {
          "internalType": "address",
          "name": "owner",
          "type": "address"
        }
      ],
      "name": "tokenCountOf",
      "outputs": [
        {
          "internalType": "uint256",
          "name": "",
          "type": "uint256"
        }
      ],
      "stateMutability": "view",
      "type": "function"
    },
    {
      "inputs": [
        {
          "internalType": "address",
          "name": "owner",
          "type": "address"
        },
        {
          "internalType": "uint256",
          "name": "index",
          "type": "uint256"
        }
      ],
      "name": "tokenOfOwnerByIndex",
      "outputs": [
        {
          "internalType": "uint256",
          "name": "",
          "type": "uint256"
        }
      ],
      "stateMutability": "view",
      "type": "function"
    },
    {
      "inputs": [
        {
          "internalType": "uint256",
          "name": "tokenId",
          "type": "uint256"
        }
      ],
      "name": "tokenURI",
      "outputs": [
        {
          "internalType": "string",
          "name": "",
          "type": "string"
        }
      ],
      "stateMutability": "view",
      "type": "function"
    },
    {
      "inputs": [
        {
          "internalType": "address",
          "name": "owner",
          "type": "address"
        }
      ],
      "name": "tokensOfOwner",
      "outputs": [
        {
          "internalType": "uint256[]",
          "name": "",
          "type": "uint256[]"
        }
      ],
      "stateMutability": "view",
      "type": "function"
    },
    {
      "inputs": [
        {
          "internalType": "address",
          "name": "from",
          "type": "address"
        },
        {
          "internalType": "address",
          "name": "to",
          "type": "address"
        },
        {
          "internalType": "uint256",
          "name": "tokenId",
          "type": "uint256"
        }
      ],
      "name": "transferFrom",
      "outputs": [],
      "stateMutability": "nonpayable",
      "type": "function"
    },
    {
      "inputs": [
        {
          "internalType": "address",
          "name": "newOwner",
          "type": "address"
        }
      ],
      "name": "transferOwnership",
      "outputs": [],
      "stateMutability": "nonpayable",
      "type": "function"
    }
  ],
  "bytecode": "0x60806040523480156200001157600080fd5b5060405162001db838038062001db88339810160408190526200003491620001cc565b3382826000620000458382620002c5565b506001620000548282620002c5565b5050506001600160a01b0381166200008657604051631e4fbdf760e01b81526000600482015260240160405180910390fd5b6200009181620000b5565b50600160086000828254620000a7919062000391565b90915550620003b992505050565b600780546001600160a01b038381166001600160a01b0319831681179093556040519116919082907f8be0079c531659141344cd1fd0a4f28419497f9722a3daafe3b4186f6b6457e090600090a35050565b634e487b7160e01b600052604160045260246000fd5b600082601f8301126200012f57600080fd5b81516001600160401b03808211156200014c576200014c62000107565b604051601f8301601f19908116603f0116810190828211818310171562000177576200017762000107565b816040528381526020925086838588010111156200019457600080fd5b600091505b83821015620001b8578582018301518183018401529082019062000199565b600093810190920192909252949350505050565b60008060408385031215620001e057600080fd5b82516001600160401b0380821115620001f857600080fd5b62000206868387016200011d565b935060208501519150808211156200021d57600080fd5b506200022c858286016200011d565b9150509250929050565b600181811c908216806200024b57607f821691505b6020821081036200026c57634e487b7160e01b600052602260045260246000fd5b50919050565b601f821115620002c057600081815260208120601f850160051c810160208610156200029b5750805b601f850160051c820191505b81811015620002bc57828155600101620002a7565b5050505b505050565b81516001600160401b03811115620002e157620002e162000107565b620002f981620002f2845462000236565b8462000272565b602080601f831160018114620003315760008415620003185750858301515b600019600386901b1c1916600185901b178555620002bc565b600085815260208120601f198616915b82811015620003625788860151825594840194600190910190840162000341565b5085821015620003815787850151600019600388901b60f8161c191681555b5050505050600190811b01905550565b80820180821115620003b357634e487b7160e01b600052601160045260246000fd5b92915050565b6119ef80620003c96000396000f3fe608060405234801561001057600080fd5b50600436106101375760003560e01c8063715018a6116100b8578063b722938a1161007c578063b722938a1461028d578063b88d4fde146102b6578063c87b56dd146102c9578063d0def521146102dc578063e985e9c5146102ef578063f2fde38b1461030257600080fd5b8063715018a6146102395780638462151c146102415780638da5cb5b1461026157806395d89b4114610272578063a22cb4651461027a57600080fd5b80632f745c59116100ff5780632f745c59146101cc57806342842e0e146101ed5780636352211e1461020057806364ba144e1461021357806370a082311461022657600080fd5b806301ffc9a71461013c57806306fdde0314610164578063081812fc14610179578063095ea7b3146101a457806323b872dd146101b9575b600080fd5b61014f61014a36600461131d565b610315565b60405190151581526020015b60405180910390f35b61016c610340565b60405161015b919061138a565b61018c61018736600461139d565b6103d2565b6040516001600160a01b03909116815260200161015b565b6101b76101b23660046113d2565b6103fb565b005b6101b76101c73660046113fc565b61040a565b6101df6101da3660046113d2565b61049a565b60405190815260200161015b565b6101b76101fb3660046113fc565b610534565b61018c61020e36600461139d565b610554565b6101b7610221366004611484565b61055f565b6101df6102343660046114f0565b61067d565b6101b76106c5565b61025461024f3660046114f0565b6106d9565b60405161015b919061150b565b6007546001600160a01b031661018c565b61016c610745565b6101b761028836600461154f565b610754565b6101df61029b3660046114f0565b6001600160a01b031660009081526009602052604090205490565b6101b76102c4366004611617565b61075f565b61016c6102d736600461139d565b610777565b6101df6102ea366004611693565b610888565b61014f6102fd3660046116f5565b6108c2565b6101b76103103660046114f0565b6108f0565b60006001600160e01b03198216632483248360e11b148061033a575061033a8261092e565b92915050565b60606000805461034f90611728565b80601f016020809104026020016040519081016040528092919081815260200182805461037b90611728565b80156103c85780601f1061039d576101008083540402835291602001916103c8565b820191906000526020600020905b8154815290600101906020018083116103ab57829003601f168201915b5050505050905090565b60006103dd8261097e565b506000828152600460205260409020546001600160a01b031661033a565b6104068282336109b7565b5050565b6001600160a01b03821661043957604051633250574960e11b8152600060048201526024015b60405180910390fd5b60006104468383336109c4565b9050836001600160a01b0316816001600160a01b031614610494576040516364283d7b60e01b81526001600160a01b0380861660048301526024820184905282166044820152606401610430565b50505050565b6001600160a01b03821660009081526009602052604081205482106104f75760405162461bcd60e51b8152602060048201526013602482015272496e646578206f7574206f6620626f756e647360681b6044820152606401610430565b6001600160a01b038316600090815260096020526040902080548390811061052157610521611762565b9060005260206000200154905092915050565b61054f8383836040518060200160405280600081525061075f565b505050565b600061033a8261097e565b610567610a59565b8281146105a95760405162461bcd60e51b815260206004820152601060248201526f098cadccee8d0e640dad2e6dac2e8c6d60831b6044820152606401610430565b60005b83811015610676576008546105e78686848181106105cc576105cc611762565b90506020020160208101906105e191906114f0565b82610a86565b610649818585858181106105fd576105fd611762565b905060200281019061060f9190611778565b8080601f016020809104026020016040519081016040528093929190818152602001838380828437600092019190915250610aa092505050565b60016008600082825461065c91906117d5565b9091555082915061066e9050816117e8565b9150506105ac565b5050505050565b60006001600160a01b0382166106a9576040516322718ad960e21b815260006004820152602401610430565b506001600160a01b031660009081526003602052604090205490565b6106cd610a59565b6106d76000610af0565b565b6001600160a01b03811660009081526009602090815260409182902080548351818402810184019094528084526060939283018282801561073957602002820191906000526020600020905b815481526020019060010190808311610725575b50505050509050919050565b60606001805461034f90611728565b610406338383610b42565b61076a84848461040a565b6104943385858585610be1565b60606107828261097e565b506000828152600660205260408120805461079c90611728565b80601f01602080910402602001604051908101604052809291908181526020018280546107c890611728565b80156108155780601f106107ea57610100808354040283529160200191610815565b820191906000526020600020905b8154815290600101906020018083116107f857829003601f168201915b50505050509050600061083360408051602081019091526000815290565b90508051600003610845575092915050565b81511561087757808260405160200161085f929190611801565b60405160208183030381529060405292505050919050565b61088084610d0b565b949350505050565b6008546000906108988482610a86565b6108a28184610aa0565b6001600860008282546108b591906117d5565b9091555090949350505050565b6001600160a01b03918216600090815260056020908152604080832093909416825291909152205460ff1690565b6108f8610a59565b6001600160a01b03811661092257604051631e4fbdf760e01b815260006004820152602401610430565b61092b81610af0565b50565b60006001600160e01b031982166380ac58cd60e01b148061095f57506001600160e01b03198216635b5e139f60e01b145b8061033a57506301ffc9a760e01b6001600160e01b031983161461033a565b6000818152600260205260408120546001600160a01b03168061033a57604051637e27328960e01b815260048101849052602401610430565b61054f8383836001610d80565b6000828152600260205260408120546001600160a01b0316816109e8868686610e86565b90506001600160a01b03821615610a0357610a038286610f7f565b6001600160a01b03861615610a50576001600160a01b038616600090815260096020818152604080842080548a8652600a8452918520829055928252600181018355918352909120018590555b95945050505050565b6007546001600160a01b031633146106d75760405163118cdaa760e01b8152336004820152602401610430565b610406828260405180602001604052806000815250611058565b6000828152600660205260409020610ab88282611876565b506040518281527ff8e1a15aba9398e019f0b49df1a4fde98ee17ae345cb5f6b5e2c27f5033e8ce79060200160405180910390a15050565b600780546001600160a01b038381166001600160a01b0319831681179093556040519116919082907f8be0079c531659141344cd1fd0a4f28419497f9722a3daafe3b4186f6b6457e090600090a35050565b6001600160a01b038216610b7457604051630b61174360e31b81526001600160a01b0383166004820152602401610430565b6001600160a01b03838116600081815260056020908152604080832094871680845294825291829020805460ff191686151590811790915591519182527f17307eab39ab6107e8899845ad3d59bd9653f200f220920489ca2b5937696c31910160405180910390a3505050565b6001600160a01b0383163b1561067657604051630a85bd0160e11b81526001600160a01b0384169063150b7a0290610c23908890889087908790600401611936565b6020604051808303816000875af1925050508015610c5e575060408051601f3d908101601f19168201909252610c5b91810190611973565b60015b610cc7573d808015610c8c576040519150601f19603f3d011682016040523d82523d6000602084013e610c91565b606091505b508051600003610cbf57604051633250574960e11b81526001600160a01b0385166004820152602401610430565b805181602001fd5b6001600160e01b03198116630a85bd0160e11b14610d0357604051633250574960e11b81526001600160a01b0385166004820152602401610430565b505050505050565b6060610d168261097e565b506000610d2e60408051602081019091526000815290565b90506000815111610d4e5760405180602001604052806000815250610d79565b80610d5884611070565b604051602001610d69929190611801565b6040516020818303038152906040525b9392505050565b8080610d9457506001600160a01b03821615155b15610e56576000610da48461097e565b90506001600160a01b03831615801590610dd05750826001600160a01b0316816001600160a01b031614155b8015610de35750610de181846108c2565b155b15610e0c5760405163a9fbf51f60e01b81526001600160a01b0384166004820152602401610430565b8115610e545783856001600160a01b0316826001600160a01b03167f8c5be1e5ebec7d5bd14f71427d1e84f3dd0314c0f7b2291e5b200ac8c7c3b92560405160405180910390a45b505b5050600090815260046020526040902080546001600160a01b0319166001600160a01b0392909216919091179055565b6000828152600260205260408120546001600160a01b0390811690831615610eb357610eb3818486611103565b6001600160a01b03811615610ef157610ed0600085600080610d80565b6001600160a01b038116600090815260036020526040902080546000190190555b6001600160a01b03851615610f20576001600160a01b0385166000908152600360205260409020805460010190555b60008481526002602052604080822080546001600160a01b0319166001600160a01b0389811691821790925591518793918516917fddf252ad1be2c89b69c2b068fc378daa952ba7f163c4a11628f55a4df523b3ef91a4949350505050565b6001600160a01b0382166000908152600960209081526040808320848452600a909252822054815491929091610fb790600190611990565b9050808214611014576000838281548110610fd457610fd4611762565b9060005260206000200154905080848481548110610ff457610ff4611762565b6000918252602080832090910192909255918252600a9052604090208290555b82805480611024576110246119a3565b60019003818190600052602060002001600090559055600a6000858152602001908152602001600020600090555050505050565b6110628383611167565b61054f336000858585610be1565b6060600061107d836111cc565b600101905060008167ffffffffffffffff81111561109d5761109d61158b565b6040519080825280601f01601f1916602001820160405280156110c7576020820181803683370190505b5090508181016020015b600019016f181899199a1a9b1b9c1cb0b131b232b360811b600a86061a8153600a85049450846110d157509392505050565b61110e8383836112a4565b61054f576001600160a01b03831661113c57604051637e27328960e01b815260048101829052602401610430565b60405163177e802f60e01b81526001600160a01b038316600482015260248101829052604401610430565b6001600160a01b03821661119157604051633250574960e11b815260006004820152602401610430565b600061119f838360006109c4565b90506001600160a01b0381161561054f576040516339e3563760e11b815260006004820152602401610430565b60008072184f03e93ff9f4daa797ed6e38ed64bf6a1f0160401b831061120b5772184f03e93ff9f4daa797ed6e38ed64bf6a1f0160401b830492506040015b6d04ee2d6d415b85acef81000000008310611237576d04ee2d6d415b85acef8100000000830492506020015b662386f26fc10000831061125557662386f26fc10000830492506010015b6305f5e100831061126d576305f5e100830492506008015b612710831061128157612710830492506004015b60648310611293576064830492506002015b600a831061033a5760010192915050565b60006001600160a01b038316158015906108805750826001600160a01b0316846001600160a01b031614806112de57506112de84846108c2565b806108805750506000908152600460205260409020546001600160a01b03908116911614919050565b6001600160e01b03198116811461092b57600080fd5b60006020828403121561132f57600080fd5b8135610d7981611307565b60005b8381101561135557818101518382015260200161133d565b50506000910152565b6000815180845261137681602086016020860161133a565b601f01601f19169290920160200192915050565b602081526000610d79602083018461135e565b6000602082840312156113af57600080fd5b5035919050565b80356001600160a01b03811681146113cd57600080fd5b919050565b600080604083850312156113e557600080fd5b6113ee836113b6565b946020939093013593505050565b60008060006060848603121561141157600080fd5b61141a846113b6565b9250611428602085016113b6565b9150604084013590509250925092565b60008083601f84011261144a57600080fd5b50813567ffffffffffffffff81111561146257600080fd5b6020830191508360208260051b850101111561147d57600080fd5b9250929050565b6000806000806040858703121561149a57600080fd5b843567ffffffffffffffff808211156114b257600080fd5b6114be88838901611438565b909650945060208701359150808211156114d757600080fd5b506114e487828801611438565b95989497509550505050565b60006020828403121561150257600080fd5b610d79826113b6565b6020808252825182820181905260009190848201906040850190845b8181101561154357835183529284019291840191600101611527565b50909695505050505050565b6000806040838503121561156257600080fd5b61156b836113b6565b91506020830135801515811461158057600080fd5b809150509250929050565b634e487b7160e01b600052604160045260246000fd5b600067ffffffffffffffff808411156115bc576115bc61158b565b604051601f8501601f19908116603f011681019082821181831017156115e4576115e461158b565b816040528093508581528686860111156115fd57600080fd5b858560208301376000602087830101525050509392505050565b6000806000806080858703121561162d57600080fd5b611636856113b6565b9350611644602086016113b6565b925060408501359150606085013567ffffffffffffffff81111561166757600080fd5b8501601f8101871361167857600080fd5b611687878235602084016115a1565b91505092959194509250565b600080604083850312156116a657600080fd5b6116af836113b6565b9150602083013567ffffffffffffffff8111156116cb57600080fd5b8301601f810185136116dc57600080fd5b6116eb858235602084016115a1565b9150509250929050565b6000806040838503121561170857600080fd5b611711836113b6565b915061171f602084016113b6565b90509250929050565b600181811c9082168061173c57607f821691505b60208210810361175c57634e487b7160e01b600052602260045260246000fd5b50919050565b634e487b7160e01b600052603260045260246000fd5b6000808335601e1984360301811261178f57600080fd5b83018035915067ffffffffffffffff8211156117aa57600080fd5b60200191503681900382131561147d57600080fd5b634e487b7160e01b600052601160045260246000fd5b8082018082111561033a5761033a6117bf565b6000600182016117fa576117fa6117bf565b5060010190565b6000835161181381846020880161133a565b83519083019061182781836020880161133a565b01949350505050565b601f82111561054f57600081815260208120601f850160051c810160208610156118575750805b601f850160051c820191505b81811015610d0357828155600101611863565b815167ffffffffffffffff8111156118905761189061158b565b6118a48161189e8454611728565b84611830565b602080601f8311600181146118d957600084156118c15750858301515b600019600386901b1c1916600185901b178555610d03565b600085815260208120601f198616915b82811015611908578886015182559484019460019091019084016118e9565b50858210156119265787850151600019600388901b60f8161c191681555b5050505050600190811b01905550565b6001600160a01b03858116825284166020820152604081018390526080606082018190526000906119699083018461135e565b9695505050505050565b60006020828403121561198557600080fd5b8151610d7981611307565b8181038181111561033a5761033a6117bf565b634e487b7160e01b600052603160045260246000fdfea26469706673582212201a98d185cab2c1a67b240d62d866df3272f117d888025a235ffbd9d59ac9642064736f6c63430008140033",
  "linkReferences": {},
  "deployedLinkReferences": {}
}