{
  "_format": "hh-sol-artifact-1",
  "contractName": "GDNFT",
  "sourceName": "contracts/GDNFT.sol",
  "abi": [
    {
      "inputs": [
        {
          "internalType": "string",
          "name": "name_",
          "type": "string"
        },
        {
          "internalType": "string",
          "name": "symbol_",
          "type": "string"
        }
      ],
      "stateMutability": "nonpayable",
      "type": "constructor"
    },
    {
      "inputs": [
        {
          "internalType": "address",
          "name": "sender",
          "type": "address"
        },
        {
          "internalType": "uint256",
          "name": "tokenId",
          "type": "uint256"
        },
        {
          "internalType": "address",
          "name": "owner",
          "type": "address"
        }
      ],
      "name": "ERC721IncorrectOwner",
      "type": "error"
    },
    {
      "inputs": [
        {
          "internalType": "address",
          "name": "operator",
          "type": "address"
        },
        {
          "internalType": "uint256",
          "name": "tokenId",
          "type": "uint256"
        }
      ],
      "name": "ERC721InsufficientApproval",
      "type": "error"
    },
    {
      "inputs": [
        {
          "internalType": "address",
          "name": "approver",
          "type": "address"
        }
      ],
      "name": "ERC721InvalidApprover",
      "type": "error"
    },
    {
      "inputs": [
        {
          "internalType": "address",
          "name": "operator",
          "type": "address"
        }
      ],
      "name": "ERC721InvalidOperator",
      "type": "error"
    },
    {
      "inputs": [
        {
          "internalType": "address",
          "name": "owner",
          "type": "address"
        }
      ],
      "name": "ERC721InvalidOwner",
      "type": "error"
    },
    {
      "inputs": [
        {
          "internalType": "address",
          "name": "receiver",
          "type": "address"
        }
      ],
      "name": "ERC721InvalidReceiver",
      "type": "error"
    },
    {
      "inputs": [
        {
          "internalType": "address",
          "name": "sender",
          "type": "address"
        }
      ],
      "name": "ERC721InvalidSender",
      "type": "error"
    },
    {
      "inputs": [
        {
          "internalType": "uint256",
          "name": "tokenId",
          "type": "uint256"
        }
      ],
      "name": "ERC721NonexistentToken",
      "type": "error"
    },
    {
      "inputs": [
        {
          "internalType": "address",
          "name": "owner",
          "type": "address"
        }
      ],
      "name": "OwnableInvalidOwner",
      "type": "error"
    },
    {
      "inputs": [
        {
          "internalType": "address",
          "name": "account",
          "type": "address"
        }
      ],
      "name": "OwnableUnauthorizedAccount",
      "type": "error"
    },
    {
      "anonymous": false,
      "inputs": [
        {
          "indexed": true,
          "internalType": "address",
          "name": "owner",
          "type": "address"
        },
        {
          "indexed": true,
          "internalType": "address",
          "name": "approved",
          "type": "address"
        },
        {
          "indexed": true,
          "internalType": "uint256",
          "name": "tokenId",
          "type": "uint256"
        }
      ],
      "name": "Approval",
      "type": "event"
    },
    {
      "anonymous": false,
      "inputs": [
        {
          "indexed": true,
          "internalType": "address",
          "name": "owner",
          "type": "address"
        },
        {
          "indexed": true,
          "internalType": "address",
          "name": "operator",
          "type": "address"
        },
        {
          "indexed": false,
          "internalType": "bool",
          "name": "approved",
          "type": "bool"
        }
      ],
      "name": "ApprovalForAll",
      "type": "event"
    },
    {
      "anonymous": false,
      "inputs": [
        {
          "indexed": false,
          "internalType": "uint256",
          "name": "_fromTokenId",
          "type": "uint256"
        },
        {
          "indexed": false,
          "internalType": "uint256",
          "name": "_toTokenId",
          "type": "uint256"
        }
      ],
      "name": "BatchMetadataUpdate",
      "type": "event"
    },
    {
      "anonymous": false,
      "inputs": [
        {
          "indexed": false,
          "internalType": "uint256",
          "name": "_tokenId",
          "type": "uint256"
        }
      ],
      "name": "MetadataUpdate",
      "type": "event"
    },
    {
      "anonymous": false,
      "inputs": [
        {
          "indexed": true,
          "internalType": "address",
          "name": "previousOwner",
          "type": "address"
        },
        {
          "indexed": true,
          "internalType": "address",
          "name": "newOwner",
          "type": "address"
        }
      ],
      "name": "OwnershipTransferred",
      "type": "event"
    },
    {
      "anonymous": false,
      "inputs": [
        {
          "indexed": true,
          "internalType": "address",
          "name": "from",
          "type": "address"
        },
        {
          "indexed": true,
          "internalType": "address",
          "name": "to",
          "type": "address"
        },
        {
          "indexed": true,
          "internalType": "uint256",
          "name": "tokenId",
          "type": "uint256"
        }
      ],
      "name": "Transfer",
      "type": "event"
    },
    {
      "inputs": [
        {
          "internalType": "address",
          "name": "to",
          "type": "address"
        },
        {
          "internalType": "uint256",
          "name": "tokenId",
          "type": "uint256"
        }
      ],
      "name": "approve",
      "outputs": [],
      "stateMutability": "nonpayable",
      "type": "function"
    },
    {
      "inputs": [
        {
          "internalType": "address",
          "name": "owner",
          "type": "address"
        }
      ],
      "name": "balanceOf",
      "outputs": [
        {
          "internalType": "uint256",
          "name": "",
          "type": "uint256"
        }
      ],
      "stateMutability": "view",
      "type": "function"
    },
    {
      "inputs": [
        {
          "internalType": "address[]",
          "name": "recipients",
          "type": "address[]"
        },
        {
          "internalType": "string[]",
          "name": "tokenURIs",
          "type": "string[]"
        }
      ],
      "name": "batchMint",
      "outputs": [],
      "stateMutability": "nonpayable",
      "type": "function"
    },
    {
      "inputs": [
        {
          "internalType": "uint256",
          "name": "tokenId",
          "type": "uint256"
        }
      ],
      "name": "getApproved",
      "outputs": [
        {
          "internalType": "address",
          "name": "",
          "type": "address"
        }
      ],
      "stateMutability": "view",
      "type": "function"
    },
    {
      "inputs": [
        {
          "internalType": "address",
          "name": "owner",
          "type": "address"
        },
        {
          "internalType": "address",
          "name": "operator",
          "type": "address"
        }
      ],
      "name": "isApprovedForAll",
      "outputs": [
        {
          "internalType": "bool",
          "name": "",
          "type": "bool"
        }
      ],
      "stateMutability": "view",
      "type": "function"
    },
    {
      "inputs": [
        {
          "internalType": "address",
          "name": "to",
          "type": "address"
        },
        {
          "internalType": "string",
          "name": "tokenURI",
          "type": "string"
        }
      ],
      "name": "mint",
      "outputs": [
        {
          "internalType": "uint256",
          "name": "",
          "type": "uint256"
        }
      ],
      "stateMutability": "nonpayable",
      "type": "function"
    },
    {
      "inputs": [],
      "name": "name",
      "outputs": [
        {
          "internalType": "string",
          "name": "",
          "type": "string"
        }
      ],
      "stateMutability": "view",
      "type": "function"
    },
    {
      "inputs": [],
      "name": "owner",
      "outputs": [
        {
          "internalType": "address",
          "name": "",
          "type": "address"
        }
      ],
      "stateMutability": "view",
      "type": "function"
    },
    {
      "inputs": [
        {
          "internalType": "uint256",
          "name": "tokenId",
          "type": "uint256"
        }
      ],
      "name": "ownerOf",
      "outputs": [
        {
          "internalType": "address",
          "name": "",
          "type": "address"
        }
      ],
      "stateMutability": "view",
      "type": "function"
    },
    {
      "inputs": [],
      "name": "renounceOwnership",
      "outputs": [],
      "stateMutability": "nonpayable",
      "type": "function"
    },
    {
      "inputs": [
        {
          "internalType": "address",
          "name": "from",
          "type": "address"
        },
        {
          "internalType": "address",
          "name": "to",
          "type": "address"
        },
        {
          "internalType": "uint256",
          "name": "tokenId",
          "type": "uint256"
        }
      ],
      "name": "safeTransferFrom",
      "outputs": [],
      "stateMutability": "nonpayable",
      "type": "function"
    },
    {
      "inputs": [
        {
          "internalType": "address",
          "name": "from",
          "type": "address"
        },
        {
          "internalType": "address",
          "name": "to",
          "type": "address"
        },
        {
          "internalType": "uint256",
          "name": "tokenId",
          "type": "uint256"
        },
        {
          "internalType": "bytes",
          "name": "data",
          "type": "bytes"
        }
      ],
      "name": "safeTransferFrom",
      "outputs": [],
      "stateMutability": "nonpayable",
      "type": "function"
    },
    {
      "inputs": [
        {
          "internalType": "address",
          "name": "operator",
          "type": "address"
        },
        {
          "internalType": "bool",
          "name": "approved",
          "type": "bool"
        }
      ],
      "name": "setApprovalForAll",
      "outputs": [],
      "stateMutability": "nonpayable",
      "type": "function"
    },
    {
      "inputs": [
        {
          "internalType": "bytes4",
          "name": "interfaceId",
          "type": "bytes4"
        }
      ],
      "name": "supportsInterface",
      "outputs": [
        {
          "internalType": "bool",
          "name": "",
          "type": "bool"
        }
      ],
      "stateMutability": "view",
      "type": "function"
    },
    {
      "inputs": [],
      "name": "symbol",
      "outputs": [
        {
          "internalType": "string",
          "name": "",
          "type": "string"
        }
      ],
      "stateMutability": "view",
      "type": "function"
    },
    {
      "inputs": [
        {
          "internalType": "uint256",
          "name": "tokenId",
          "type": "uint256"
        }
      ],
      "name": "tokenURI",
      "outputs": [
        {
          "internalType": "string",
          "name": "",
          "type": "string"
        }
      ],
      "stateMutability": "view",
      "type": "function"
    },
    {
      "inputs": [
        {
          "internalType": "address",
          "name": "from",
          "type": "address"
        },
        {
          "internalType": "address",
          "name": "to",
          "type": "address"
        },
        {
          "internalType": "uint256",
          "name": "tokenId",
          "type": "uint256"
        }
      ],
      "name": "transferFrom",
      "outputs": [],
      "stateMutability": "nonpayable",
      "type": "function"
    },
    {
      "inputs": [
        {
          "internalType": "address",
          "name": "newOwner",
          "type": "address"
        }
      ],
      "name": "transferOwnership",
      "outputs": [],
      "stateMutability": "nonpayable",
      "type": "function"
    }
  ],
  "bytecode": "0x60806040523480156200001157600080fd5b5060405162001a6138038062001a618339810160408190526200003491620001cc565b3382826000620000458382620002c5565b506001620000548282620002c5565b5050506001600160a01b0381166200008657604051631e4fbdf760e01b81526000600482015260240160405180910390fd5b6200009181620000b5565b50600160086000828254620000a7919062000391565b90915550620003b992505050565b600780546001600160a01b038381166001600160a01b0319831681179093556040519116919082907f8be0079c531659141344cd1fd0a4f28419497f9722a3daafe3b4186f6b6457e090600090a35050565b634e487b7160e01b600052604160045260246000fd5b600082601f8301126200012f57600080fd5b81516001600160401b03808211156200014c576200014c62000107565b604051601f8301601f19908116603f0116810190828211818310171562000177576200017762000107565b816040528381526020925086838588010111156200019457600080fd5b600091505b83821015620001b8578582018301518183018401529082019062000199565b600093810190920192909252949350505050565b60008060408385031215620001e057600080fd5b82516001600160401b0380821115620001f857600080fd5b62000206868387016200011d565b935060208501519150808211156200021d57600080fd5b506200022c858286016200011d565b9150509250929050565b600181811c908216806200024b57607f821691505b6020821081036200026c57634e487b7160e01b600052602260045260246000fd5b50919050565b601f821115620002c057600081815260208120601f850160051c810160208610156200029b5750805b601f850160051c820191505b81811015620002bc57828155600101620002a7565b5050505b505050565b81516001600160401b03811115620002e157620002e162000107565b620002f981620002f2845462000236565b8462000272565b602080601f831160018114620003315760008415620003185750858301515b600019600386901b1c1916600185901b178555620002bc565b600085815260208120601f198616915b82811015620003625788860151825594840194600190910190840162000341565b5085821015620003815787850151600019600388901b60f8161c191681555b5050505050600190811b01905550565b80820180821115620003b357634e487b7160e01b600052601160045260246000fd5b92915050565b61169880620003c96000396000f3fe608060405234801561001057600080fd5b50600436106101165760003560e01c8063715018a6116100a2578063b88d4fde11610071578063b88d4fde14610239578063c87b56dd1461024c578063d0def5211461025f578063e985e9c514610272578063f2fde38b1461028557600080fd5b8063715018a6146102055780638da5cb5b1461020d57806395d89b411461021e578063a22cb4651461022657600080fd5b806323b872dd116100e957806323b872dd1461019857806342842e0e146101ab5780636352211e146101be57806364ba144e146101d157806370a08231146101e457600080fd5b806301ffc9a71461011b57806306fdde0314610143578063081812fc14610158578063095ea7b314610183575b600080fd5b61012e610129366004611033565b610298565b60405190151581526020015b60405180910390f35b61014b6102c3565b60405161013a91906110a0565b61016b6101663660046110b3565b610355565b6040516001600160a01b03909116815260200161013a565b6101966101913660046110e8565b61037e565b005b6101966101a6366004611112565b61038d565b6101966101b9366004611112565b61041d565b61016b6101cc3660046110b3565b61043d565b6101966101df36600461119a565b610448565b6101f76101f2366004611206565b610566565b60405190815260200161013a565b6101966105ae565b6007546001600160a01b031661016b565b61014b6105c2565b610196610234366004611221565b6105d1565b6101966102473660046112e9565b6105dc565b61014b61025a3660046110b3565b6105f4565b6101f761026d366004611365565b610705565b61012e6102803660046113c7565b610746565b610196610293366004611206565b610774565b60006001600160e01b03198216632483248360e11b14806102bd57506102bd826107b2565b92915050565b6060600080546102d2906113fa565b80601f01602080910402602001604051908101604052809291908181526020018280546102fe906113fa565b801561034b5780601f106103205761010080835404028352916020019161034b565b820191906000526020600020905b81548152906001019060200180831161032e57829003601f168201915b5050505050905090565b600061036082610802565b506000828152600460205260409020546001600160a01b03166102bd565b61038982823361083b565b5050565b6001600160a01b0382166103bc57604051633250574960e11b8152600060048201526024015b60405180910390fd5b60006103c9838333610848565b9050836001600160a01b0316816001600160a01b031614610417576040516364283d7b60e01b81526001600160a01b03808616600483015260248201849052821660448201526064016103b3565b50505050565b610438838383604051806020016040528060008152506105dc565b505050565b60006102bd82610802565b610450610941565b8281146104925760405162461bcd60e51b815260206004820152601060248201526f098cadccee8d0e640dad2e6dac2e8c6d60831b60448201526064016103b3565b60005b8381101561055f576008546104d08686848181106104b5576104b5611434565b90506020020160208101906104ca9190611206565b8261096e565b610532818585858181106104e6576104e6611434565b90506020028101906104f8919061144a565b8080601f01602080910402602001604051908101604052809392919081815260200183838082843760009201919091525061098892505050565b60016008600082825461054591906114a7565b909155508291506105579050816114ba565b915050610495565b5050505050565b60006001600160a01b038216610592576040516322718ad960e21b8152600060048201526024016103b3565b506001600160a01b031660009081526003602052604090205490565b6105b6610941565b6105c060006109d8565b565b6060600180546102d2906113fa565b610389338383610a2a565b6105e784848461038d565b6104173385858585610ac9565b60606105ff82610802565b5060008281526006602052604081208054610619906113fa565b80601f0160208091040260200160405190810160405280929190818152602001828054610645906113fa565b80156106925780601f1061066757610100808354040283529160200191610692565b820191906000526020600020905b81548152906001019060200180831161067557829003601f168201915b5050505050905060006106b060408051602081019091526000815290565b905080516000036106c2575092915050565b8151156106f45780826040516020016106dc9291906114d3565b60405160208183030381529060405292505050919050565b6106fd84610bf3565b949350505050565b600061070f610941565b60085461071c848261096e565b6107268184610988565b60016008600082825461073991906114a7565b9091555090949350505050565b6001600160a01b03918216600090815260056020908152604080832093909416825291909152205460ff1690565b61077c610941565b6001600160a01b0381166107a657604051631e4fbdf760e01b8152600060048201526024016103b3565b6107af816109d8565b50565b60006001600160e01b031982166380ac58cd60e01b14806107e357506001600160e01b03198216635b5e139f60e01b145b806102bd57506301ffc9a760e01b6001600160e01b03198316146102bd565b6000818152600260205260408120546001600160a01b0316806102bd57604051637e27328960e01b8152600481018490526024016103b3565b6104388383836001610c68565b6000828152600260205260408120546001600160a01b039081169083161561087557610875818486610d6e565b6001600160a01b038116156108b357610892600085600080610c68565b6001600160a01b038116600090815260036020526040902080546000190190555b6001600160a01b038516156108e2576001600160a01b0385166000908152600360205260409020805460010190555b60008481526002602052604080822080546001600160a01b0319166001600160a01b0389811691821790925591518793918516917fddf252ad1be2c89b69c2b068fc378daa952ba7f163c4a11628f55a4df523b3ef91a4949350505050565b6007546001600160a01b031633146105c05760405163118cdaa760e01b81523360048201526024016103b3565b610389828260405180602001604052806000815250610dd2565b60008281526006602052604090206109a08282611548565b506040518281527ff8e1a15aba9398e019f0b49df1a4fde98ee17ae345cb5f6b5e2c27f5033e8ce79060200160405180910390a15050565b600780546001600160a01b038381166001600160a01b0319831681179093556040519116919082907f8be0079c531659141344cd1fd0a4f28419497f9722a3daafe3b4186f6b6457e090600090a35050565b6001600160a01b038216610a5c57604051630b61174360e31b81526001600160a01b03831660048201526024016103b3565b6001600160a01b03838116600081815260056020908152604080832094871680845294825291829020805460ff191686151590811790915591519182527f17307eab39ab6107e8899845ad3d59bd9653f200f220920489ca2b5937696c31910160405180910390a3505050565b6001600160a01b0383163b1561055f57604051630a85bd0160e11b81526001600160a01b0384169063150b7a0290610b0b908890889087908790600401611608565b6020604051808303816000875af1925050508015610b46575060408051601f3d908101601f19168201909252610b4391810190611645565b60015b610baf573d808015610b74576040519150601f19603f3d011682016040523d82523d6000602084013e610b79565b606091505b508051600003610ba757604051633250574960e11b81526001600160a01b03851660048201526024016103b3565b805181602001fd5b6001600160e01b03198116630a85bd0160e11b14610beb57604051633250574960e11b81526001600160a01b03851660048201526024016103b3565b505050505050565b6060610bfe82610802565b506000610c1660408051602081019091526000815290565b90506000815111610c365760405180602001604052806000815250610c61565b80610c4084610dea565b604051602001610c519291906114d3565b6040516020818303038152906040525b9392505050565b8080610c7c57506001600160a01b03821615155b15610d3e576000610c8c84610802565b90506001600160a01b03831615801590610cb85750826001600160a01b0316816001600160a01b031614155b8015610ccb5750610cc98184610746565b155b15610cf45760405163a9fbf51f60e01b81526001600160a01b03841660048201526024016103b3565b8115610d3c5783856001600160a01b0316826001600160a01b03167f8c5be1e5ebec7d5bd14f71427d1e84f3dd0314c0f7b2291e5b200ac8c7c3b92560405160405180910390a45b505b5050600090815260046020526040902080546001600160a01b0319166001600160a01b0392909216919091179055565b610d79838383610e7d565b610438576001600160a01b038316610da757604051637e27328960e01b8152600481018290526024016103b3565b60405163177e802f60e01b81526001600160a01b0383166004820152602481018290526044016103b3565b610ddc8383610ee0565b610438336000858585610ac9565b60606000610df783610f45565b600101905060008167ffffffffffffffff811115610e1757610e1761125d565b6040519080825280601f01601f191660200182016040528015610e41576020820181803683370190505b5090508181016020015b600019016f181899199a1a9b1b9c1cb0b131b232b360811b600a86061a8153600a8504945084610e4b57509392505050565b60006001600160a01b038316158015906106fd5750826001600160a01b0316846001600160a01b03161480610eb75750610eb78484610746565b806106fd5750506000908152600460205260409020546001600160a01b03908116911614919050565b6001600160a01b038216610f0a57604051633250574960e11b8152600060048201526024016103b3565b6000610f1883836000610848565b90506001600160a01b03811615610438576040516339e3563760e11b8152600060048201526024016103b3565b60008072184f03e93ff9f4daa797ed6e38ed64bf6a1f0160401b8310610f845772184f03e93ff9f4daa797ed6e38ed64bf6a1f0160401b830492506040015b6d04ee2d6d415b85acef81000000008310610fb0576d04ee2d6d415b85acef8100000000830492506020015b662386f26fc100008310610fce57662386f26fc10000830492506010015b6305f5e1008310610fe6576305f5e100830492506008015b6127108310610ffa57612710830492506004015b6064831061100c576064830492506002015b600a83106102bd5760010192915050565b6001600160e01b0319811681146107af57600080fd5b60006020828403121561104557600080fd5b8135610c618161101d565b60005b8381101561106b578181015183820152602001611053565b50506000910152565b6000815180845261108c816020860160208601611050565b601f01601f19169290920160200192915050565b602081526000610c616020830184611074565b6000602082840312156110c557600080fd5b5035919050565b80356001600160a01b03811681146110e357600080fd5b919050565b600080604083850312156110fb57600080fd5b611104836110cc565b946020939093013593505050565b60008060006060848603121561112757600080fd5b611130846110cc565b925061113e602085016110cc565b9150604084013590509250925092565b60008083601f84011261116057600080fd5b50813567ffffffffffffffff81111561117857600080fd5b6020830191508360208260051b850101111561119357600080fd5b9250929050565b600080600080604085870312156111b057600080fd5b843567ffffffffffffffff808211156111c857600080fd5b6111d48883890161114e565b909650945060208701359150808211156111ed57600080fd5b506111fa8782880161114e565b95989497509550505050565b60006020828403121561121857600080fd5b610c61826110cc565b6000806040838503121561123457600080fd5b61123d836110cc565b91506020830135801515811461125257600080fd5b809150509250929050565b634e487b7160e01b600052604160045260246000fd5b600067ffffffffffffffff8084111561128e5761128e61125d565b604051601f8501601f19908116603f011681019082821181831017156112b6576112b661125d565b816040528093508581528686860111156112cf57600080fd5b858560208301376000602087830101525050509392505050565b600080600080608085870312156112ff57600080fd5b611308856110cc565b9350611316602086016110cc565b925060408501359150606085013567ffffffffffffffff81111561133957600080fd5b8501601f8101871361134a57600080fd5b61135987823560208401611273565b91505092959194509250565b6000806040838503121561137857600080fd5b611381836110cc565b9150602083013567ffffffffffffffff81111561139d57600080fd5b8301601f810185136113ae57600080fd5b6113bd85823560208401611273565b9150509250929050565b600080604083850312156113da57600080fd5b6113e3836110cc565b91506113f1602084016110cc565b90509250929050565b600181811c9082168061140e57607f821691505b60208210810361142e57634e487b7160e01b600052602260045260246000fd5b50919050565b634e487b7160e01b600052603260045260246000fd5b6000808335601e1984360301811261146157600080fd5b83018035915067ffffffffffffffff82111561147c57600080fd5b60200191503681900382131561119357600080fd5b634e487b7160e01b600052601160045260246000fd5b808201808211156102bd576102bd611491565b6000600182016114cc576114cc611491565b5060010190565b600083516114e5818460208801611050565b8351908301906114f9818360208801611050565b01949350505050565b601f82111561043857600081815260208120601f850160051c810160208610156115295750805b601f850160051c820191505b81811015610beb57828155600101611535565b815167ffffffffffffffff8111156115625761156261125d565b6115768161157084546113fa565b84611502565b602080601f8311600181146115ab57600084156115935750858301515b600019600386901b1c1916600185901b178555610beb565b600085815260208120601f198616915b828110156115da578886015182559484019460019091019084016115bb565b50858210156115f85787850151600019600388901b60f8161c191681555b5050505050600190811b01905550565b6001600160a01b038581168252841660208201526040810183905260806060820181905260009061163b90830184611074565b9695505050505050565b60006020828403121561165757600080fd5b8151610c618161101d56fea2646970667358221220daf736dc1102610c2c3c6a9b5b7a7abff4eb56d03bbc986ace40878c1a0eba1464736f6c63430008140033",
  "linkReferences": {},
  "deployedLinkReferences": {}
}